:020000040000FA
:0A000000000000308A00312820289B
:10004000A000030EA1000A08A2008A010301051BFB
:10005000203E851B803EB0003110851A311402000D
:10006000020020088200200E000080000000031023
:100070000100031283160B108A000B30840001303C
:100080008400011080008200003090000030950054
:100090000430920004008000000080000000B000E6
:1000A000B100B00082000400040004120600BC206D
:1000B0000F300505B200B208031963280F30320271
:1000C0000319632868283414861606170516552860
:1000D0003410861206130512B00803195528B920EA
:1000E00071280F300505B200341C8128320803192D
:1000F00071280F3C031C7128341086120613051258
:10010000812832088207AB28B6289C289C289F2883
:100110009928B1289C28AE289428962899289F28A9
:1001200096289F28A2288128C2207128C220331433
:100130007128C22033107128C52033107128C820BF
:10014000331471283318C820331CC5203414861684
:10015000061305167128C220BC2063283118C82058
:1001600071283118C820311CC5207128311CC520C8
:100170007128300895000800950186110612861036
:1001800006110800061186100800061186140800E2
:06019000861006150800B0
:104000000F000F000F000F00FF3FFF3F05111C3F87
:1040100000000000000000000000000000000000A0
:104020000000000000000000000000000000000090
:104030000000000000000000000000000000000080
:104040000000000000000000000000000000000070
:104050000000000000000000000000000000000060
:104060000000000000000000000000000000000050
:104070000000000000000000000000000000000040
:104080000000000000000000000000000000000030
:104090000000000000000000000000000000000020
:1040A0000000000000000000000000000000000010
:1040B0000000000000000000000000000000000000
:1040C00000000000000000000000000000000000F0
:1040D00000000000000000000000000000000000E0
:1040E00000000000000000000000000000000000D0
:1040F00000000000000000000000000000000000C0
:1041000000000000000000000000000000000000AF
:10411000000000000000000000000000000000009F
:10412000000000000000000000000000000000008F
:10413000000000000000000000000000000000007F
:10414000000000000000000000000000000000006F
:10415000000000000000000000000000000000005F
:10416000000000000000000000000000000000004F
:10417000000000000000000000000000000000003F
:10418000000000000000000000000000000000002F
:10419000000000000000000000000000000000001F
:1041A000000000000000000000000000000000000F
:1041B00000000000000000000000000000000000FF
:1041C00000000000000000000000000000000000EF
:1041D00000000000000000000000000000000000DF
:1041E00000000000000000000000000000000000CF
:1041F00000000000000000000000000000000000BF
:00000001FF
