:020000040000FA
:020000003028A6
:020008001028BE
:10002000A000030EA1008301B0010301051B403EA7
:10003000851B803EB0003110051A3114210E83005B
:08004000A00E200E8B10090038
:1000600007309F000B168B17831603130B308E007F
:10007000FF30850001308600F930920083120313AF
:10008000003095000C309700043092008601850105
:10009000B001B101B201B301B4014E28B1200F305B
:1000A0000505B200031959280F30320203195928E7
:1000B0005D283414861606174E283410861206134F
:1000C000B00803194E286428AE200F300505B20091
:1000D000341C77283208031959280F3C031C642864
:1000E00034148612061386133118861777280F30BA
:1000F00032058207A028AB289228922895288F28BD
:10010000A6289228A3288A288C288F2895288C280E
:1001100095289828B7206428B72033146428B7207E
:1001200033106428BA2033106428BD2033146428A7
:100130003318BD20331CBA203414861606136428E5
:10014000B720B12059283118BD2064283118BD20AE
:10015000311CBA206428311CBA206428300895006C
:100160000800950186110612861006110800061176
:10017000861008000611861408008610061508006F
:02400E00183F59
:00000001FF
